00COTAHIST.2017BOVESPA 20170116                                                                                                                                                                                                                      
012017011602AALR3       010ALLIAR      ON      NM   R$  000000000150000000000015000000000001472000000000148100000000014800000000001471000000000148000291000000000000105800000000000156772100000000000000009999123100000010000000000000BRAALRACNOR6100
012017011696AALR3F      020ALLIAR      ON      NM   R$  000000000149000000000014900000000001477000000000148600000000014770000000001442000000000151000003000000000000000100000000000000148691000000000000009999123100000010000000000000BRAALRACNOR6100
012017011602AAPL34      010APPLE       DRN          R$  000000000384400000000038440000000003844000000000384400000000038440000000003844000000000402500001000000000000000100000000000000384400000000000000009999123100000010000000000000BRAAPLBDR004119
012017011610ABCB2       010ABC BRASIL  DIR PRE N2   R$  000000000050600000000005320000000000500000000000051400000000005200000000000500000000000053400107000000000000025400000000000013074900000000000000009999123100000010000000000000BRABCBD10PR0126
012017011696ABCB2F      020ABC BRASIL  DIR PRE N2   R$  000000000050600000000005200000000000481000000000050100000000004940000000000501000000000052500023000000000000000282000000000000141406000000000000009999123100000010000000000000BRABCBD10PR0126
012017011602ABCB4       010ABC BRASIL  PN      N2   R$  000000000158900000000016140000000001564000000000158700000000015870000000001583000000000159502348000000000000371900000000000590209300000000000000009999123100000010000000000000BRABCBACNPR4127
012017011696ABCB4F      020ABC BRASIL  PN      N2   R$  000000000159000000000016060000000001564000000000158200000000015780000000001576000000000160800031000000000000000716000000000001133412000000000000009999123100000010000000000000BRABCBACNPR4127
012017011612ABCP11      010FII ABC IMOBCI           R$  000000000119900000000012100000000001199000000000120000000000012100000000001210000000000131500030000000000000001964000000000002357172000000000000009999123100000010000000000000BRABCPCTF000255
012017011602ABEV3       010AMBEV S/A   ON           R$  000000000171400000000017200000000001690000000000169800000000017050000000001700000000000170516117000000000008201000000000013929115100000000000000009999123100000010000000000000BRABEVACNOR1115
012017011696ABEV3F      020AMBEV S/A   ON           R$  000000000171200000000017180000000001690000000000170300000000017080000000001697000000000170800321000000000000006089000000000010372954000000000000009999123100000010000000000000BRABEVACNOR1115
012017011662ABEV3T      030AMBEV S/A   ON        016R$  000000000170700000000017080000000001707000000000170700000000017080000000000000000000000000000002000000000000005000000000000008537544000000000000009999123100000010000000000000BRABEVACNOR1115
012017011662ABEV3T      030AMBEV S/A   ON        030R$  000000000172500000000017270000000001725000000000172600000000017270000000000000000000000000000004000000000000002000000000000003453525000000000000009999123100000010000000000000BRABEVACNOR1115
012017011662ABEV3T      030AMBEV S/A   ON        120R$  000000000176800000000017690000000001768000000000176800000000017690000000000000000000000000000002000000000000000200000000000000353606000000000000009999123100000010000000000000BRABEVACNOR1115
012017011638ABEVA16E    012ABEV        ON        000R$  000000000159100000000015910000000001591000000000159100000000015910000000000000000000000000000010000000000000144100000000000229263100000000000159102017011600000010000000000000BRABEVACNOR1115
012017011638ABEVA17E    012ABEV        ON        000R$  000000000169100000000016910000000001691000000000169100000000016910000000000000000000000000000053000000000000523000000000000884393000000000000169102017011600000010000000000000BRABEVACNOR1115
012017011638ABEVA1E     012ABEVE       ON        000R$  000000000166600000000016660000000001666000000000166600000000016660000000000000000000000000000017000000000000464600000000000774023600000000000166602017011600000010000000000000BRABEVACNOR1115
012017011638ABEVA45E    012ABEV        ON        000R$  000000000154100000000015410000000001541000000000154100000000015410000000000000000000000000000001000000000000081300000000000125283300000000000154102017011600000010000000000000BRABEVACNOR1115
012017011638ABEVA46E    012ABEV        ON        000R$  000000000164100000000016410000000001641000000000164100000000016410000000000000000000000000000017000000000000603600000000000990507600000000000164102017011600000010000000000000BRABEVACNOR1115
012017011638ABEVA75E    012ABEVE       ON        000R$  000000000156600000000015660000000001566000000000156600000000015660000000000000000000000000000001000000000000010000000000000015660000000000000156602017011600000010000000000000BRABEVACNOR1115
012017011638ABEVA76E    012ABEVE       ON        000R$  000000000161600000000016160000000001616000000000161600000000016160000000000000000000000000000008000000000001054900000000001704718400000000000161602017011600000010000000000000BRABEVACNOR1115
012017011678ABEVB19     070ABEV        ON        000R$  000000000000800000000000100000000000006000000000000600000000000080000000000006000000000001000014000000000000091000000000000000631700000000000189102017022000000010000000000000BRABEVACNOR1114
012017011678ABEVB28     070ABEV  FM    ON        000R$  000000000003600000000000360000000000028000000000003300000000000310000000000034000000000003900167000000000000266200000000000008964700000000000174102017022000000010000000000000BRABEVACNOR1111
012017011678ABEVB37     070ABEV  FM    ON        000R$  000000000005600000000000560000000000055000000000005500000000000550000000000000000000000011800003000000000000451000000000000025255000000000000169102017022000000010000000000000BRABEVACNOR1111
012017011678ABEVB48     070ABEV  FM    ON        000R$  000000000001000000000000100000000000010000000000001000000000000100000000000003000000000015000002000000000000010200000000000000102000000000000184102017022000000010000000000000BRABEVACNOR1113
012017011678ABEVB68     070ABEVE       ON        000R$  000000000002400000000000260000000000021000000000002200000000000240000000000021000000000002900013000000000000017100000000000000391900000000000176602017022000000010000000000000BRABEVACNOR1113
012017011678ABEVB87     070ABEV  FM    ON        000R$  000000000010600000000001060000000000091000000000009300000000000910000000000000000000000000000002000000000000000700000000000000065200000000000164102017022000000010000000000000BRABEVACNOR1111
012017011678ABEVB88     070ABEVE       ON        000R$  000000000001500000000000150000000000010000000000001100000000000110000000000001000000000001900004000000000000004300000000000000048300000000000181602017022000000010000000000000BRABEVACNOR1111
012017011678ABEVB97     070ABEVE       ON        000R$  000000000005200000000000520000000000041000000000004300000000000410000000000015000000000005500010000000000000020400000000000000882800000000000171602017022000000010000000000000BRABEVACNOR1111
012017011678ABEVB98     070ABEV  FM    ON        000R$  000000000001600000000000190000000000016000000000001700000000000180000000000001000000000001800004000000000000006500000000000000113500000000000179102017022000000010000000000000BRABEVACNOR1112
012017011678ABEVC2      070ABEV  FM    ON        000R$  000000000003000000000000330000000000028000000000002900000000000290000000000028000000000000000009000000000000028500000000000000847000000000000180502017032000000010000000000000BRABEVACNOR1112
012017011678ABEVC46     070ABEV  FM    ON        000R$  000000000011500000000001150000000000100000000000010500000000001050000000000000000000000000000007000000000000036500000000000003851300000000000165502017032000000010000000000000BRABEVACNOR1114
012017011678ABEVC7      070ABEVE       ON        000R$  000000000005600000000000560000000000056000000000005600000000000560000000000000000000000000000001000000000000005000000000000000280000000000000173002017032000000010000000000000BRABEVACNOR1112
012017011678ABEVC77     070ABEV  FM    ON        000R$  000000000007200000000000730000000000072000000000007200000000000720000000000004000000000011500003000000000000020700000000000001500500000000000170502017032000000010000000000000BRABEVACNOR1113
012017011678ABEVC8      070ABEV  FM    ON        000R$  000000000004900000000000490000000000049000000000004900000000000490000000000036000000000008600001000000000000002000000000000000098000000000000175502017032000000010000000000000BRABEVACNOR1112
012017011678ABEVC99     070ABEV  FM    ON        000R$  000000000001900000000000200000000000018000000000001900000000000190000000000000000000000000000010000000000000070100000000000001360200000000000185502017032000000010000000000000BRABEVACNOR1108
012017011678ABEVD17     070ABEV        ON        000R$  000000000010600000000001060000000000106000000000010600000000001060000000000000000000000000000001000000000000045000000000000004770000000000000170202017041700000010000000000000BRABEVACNOR1115
012017011678ABEVD88     070ABEVE       ON        000R$  000000000005300000000000530000000000053000000000005300000000000530000000000000000000000000000001000000000000090000000000000004770000000000000177702017041700000010000000000000BRABEVACNOR1112
012017011678ABEVL11     070ABEVE       ON        000R$  000000000008100000000000810000000000081000000000008100000000000810000000000000000000000000000001000000000004000000000000000324000000000000000197702017121800000010000000000000BRABEVACNOR1114
012017011678ABEVL63     070ABEVE       ON        000R$  000000000002900000000000290000000000029000000000002900000000000290000000000000000000000000000001000000000000100000000000000002900000000000000227702017121800000010000000000000BRABEVACNOR1112
012017011678ABEVL79     070ABEVE       ON        000R$  000000000013800000000001380000000000129000000000013500000000001290000000000000000000000000000002000000000000000600000000000000081000000000000187702017121800000010000000000000BRABEVACNOR1113
012017011642ABEVM18E    013ABEVE       ON        000R$  000000000179100000000017910000000001791000000000179100000000017910000000000000000000000000000002000000000000004000000000000007164000000000000179102017011600000010000000000000BRABEVACNOR1115
012017011642ABEVM19E    013ABEVE       ON        000R$  000000000189100000000018910000000001891000000000189100000000018910000000000000000000000000000001000000000000002000000000000003782000000000000189102017011600000010000000000000BRABEVACNOR1115
012017011642ABEVM20E    013ABEVE       ON        000R$  000000000199100000000019910000000001991000000000199100000000019910000000000000000000000000000001000000000000008000000000000015928000000000000199102017011600000010000000000000BRABEVACNOR1115
012017011642ABEVM2E     013ABEVE       ON        000R$  000000000186600000000018660000000001866000000000186600000000018660000000000000000000000000000002000000000000232000000000000432912000000000000186602017011600000010000000000000BRABEVACNOR1115
012017011642ABEVM47E    013ABEVE       ON        000R$  000000000174100000000017410000000001741000000000174100000000017410000000000000000000000000000001000000000000003000000000000005223000000000000174102017011600000010000000000000BRABEVACNOR1115
012017011642ABEVM48E    013ABEVE       ON        000R$  000000000184100000000018410000000001841000000000184100000000018410000000000000000000000000000003000000000000017500000000000032217500000000000184102017011600000010000000000000BRABEVACNOR1115
012017011642ABEVM49E    013ABEVE       ON        000R$  000000000194100000000019410000000001941000000000194100000000019410000000000000000000000000000001000000000000006000000000000011646000000000000194102017011600000010000000000000BRABEVACNOR1115
012017011642ABEVM50E    013ABEVE       ON        000R$  000000000204100000000020410000000002041000000000204100000000020410000000000000000000000000000003000000000000450000000000000918450000000000000204102017011600000010000000000000BRABEVACNOR1115
012017011642ABEVM68E    013ABEVE       ON        000R$  000000000176600000000017660000000001766000000000176600000000017660000000000000000000000000000004000000000000495200000000000874523200000000000176602017011600000010000000000000BRABEVACNOR1115
012017011642ABEVM77E    013ABEVE       ON        000R$  000000000171600000000017160000000001716000000000171600000000017160000000000000000000000000000005000000000000828300000000001421362800000000000171602017011600000010000000000000BRABEVACNOR1115
012017011642ABEVM78E    013ABEVE       ON        000R$  000000000181600000000018160000000001816000000000181600000000018160000000000000000000000000000004000000000000006800000000000012348800000000000181602017011600000010000000000000BRABEVACNOR1115
012017011642ABEVM79E    013ABEVE       ON        000R$  000000000191600000000019160000000001916000000000191600000000019160000000000000000000000000000003000000000000007300000000000013986800000000000191602017011600000010000000000000BRABEVACNOR1115
012017011682ABEVN16     080ABEVE FM    ON        000R$  000000000000900000000000090000000000009000000000000900000000000090000000000007000000000000000001000000000000002000000000000000018000000000000159102017022000000010000000000000BRABEVACNOR1114
012017011682ABEVN28     080ABEVE FM    ON        000R$  000000000005300000000000550000000000051000000000005200000000000550000000000000000000000000000161000000000000286100000000000015113700000000000174102017022000000010000000000000BRABEVACNOR1111
012017011682ABEVN37     080ABEVE FM    ON        000R$  000000000002700000000000330000000000027000000000003000000000000310000000000001000000000003700004000000000000450000000000000013942000000000000169102017022000000010000000000000BRABEVACNOR1111
012017011682ABEVN76     080ABEVE       ON        000R$  000000000001200000000000120000000000012000000000001200000000000120000000000005000000000001500001000000000000005000000000000000060000000000000161602017022000000010000000000000BRABEVACNOR1114
012017011682ABEVN87     080ABEVE FM    ON        000R$  000000000001500000000000180000000000015000000000001700000000000180000000000017000000000001800004000000000000044100000000000000789700000000000164102017022000000010000000000000BRABEVACNOR1111
012017011682ABEVN97     080ABEVE       ON        000R$  000000000003800000000000410000000000038000000000004000000000000410000000000038000000000000000002000000000000005700000000000000233100000000000171602017022000000010000000000000BRABEVACNOR1111
012017011682ABEVO66     080ABEVE FM    ON        000R$  000000000002300000000000240000000000022000000000002300000000000220000000000005000000000000000008000000000000011000000000000000258700000000000163002017032000000010000000000000BRABEVACNOR1114
012017011682ABEVO8      080ABEVE       ON        000R$  000000000007000000000000700000000000070000000000007000000000000700000000000000000000000000000001000000000000006000000000000000420000000000000175502017032000000010000000000000BRABEVACNOR1112
012017011682ABEVQ47     080ABEVE       ON        000R$  000000000005500000000000550000000000055000000000005500000000000550000000000000000000000000000001000000000000000300000000000000016500000000000170202017051500000010000000000000BRABEVACNOR1112
012017011682ABEVT8      080ABEVE       ON        000R$  000000000009700000000000970000000000097000000000009700000000000970000000000000000000000000000001000000000000002000000000000000194000000000000180202017082100000010000000000000BRABEVACNOR1112
012017011682ABEVX37     080ABEVE       ON        000R$  000000000007800000000000780000000000078000000000007800000000000780000000000000000000000000000001000000000004000000000000000312000000000000000170202017121800000010000000000000BRABEVACNOR1114
012017011682ABEVX45     080ABEVE       ON        000R$  000000000001800000000000180000000000018000000000001800000000000180000000000000000000000000000002000000000004000000000000000072000000000000000155202017121800000010000000000000BRABEVACNOR1115
012017011682ABEVX79     080ABEVE       ON        000R$  000000000013300000000001330000000000133000000000013300000000001330000000000000000000000000000001000000000000100000000000000013300000000000000187702017121800000010000000000000BRABEVACNOR1113
012017011602ADHM3       010ADVANCED-DH ON           R$  000000000007200000000000730000000000070000000000007100000000000710000000000070000000000007100039000000000000076000000000000005415300000000000000009999123100000010000000000000BRADHMACNOR9100
012017011612AEFI11      010FII AESAPAR CI           R$  000000001400100000000144990000000014001000000001422500000000141520000000014151000000001415200042000000000000000851000000000012105991000000000000009999123100000010000000000000BRAEFICTF002161
012017011602AELP3       010AES ELPA    ON           R$  000000000144500000000014450000000001405000000000142500000000014050000000001100000000000140600002000000000000000200000000000000285000000000000000009999123100000010000000000000BRAELPACNOR2123
012017011602AFLT3       010AFLUENTE T  ON           R$  000000000034600000000003460000000000346000000000034600000000003460000000000361000000000000000002000000000000000200000000000000069200000000000000009999123100000010000000000000BRAFLTACNOR1109
012017011602AFLU3       010AFLUENTE    ON           R$  000000000046500000000004750000000000465000000000046800000000004750000000000475000000000055800007000000000000001500000000000000702500000000000000009999123100000010000000000000BRAFLUACNOR9121
012017011612AGCX11      010FII AG CAIXACI           R$  000000012889900000001299000000000127502000000012873500000001299000000000129000000000012985100074000000000000000217000000000027935575000000000000009999123100000010000000000000BRAGCXCTF003150
012017011602AGRO3       010BRASILAGRO  ON      NM   R$  000000000111500000000011440000000001115000000000112900000000011240000000001119000000000113500080000000000000023700000000000026779800000000000000009999123100000010000000000000BRAGROACNOR7106
012017011696AGRO3F      020BRASILAGRO  ON      NM   R$  000000000112300000000011370000000001123000000000113300000000011370000000001130000000000113700004000000000000000087000000000000098638000000000000009999123100000010000000000000BRAGROACNOR7106
012017011662AGRO3T      030BRASILAGRO  ON      NM030R$  000000000114800000000011490000000001148000000000114800000000011490000000000000000000000000000002000000000000000800000000000000918433000000000000009999123100000010000000000000BRAGROACNOR7106
012017011662AGRO3T      030BRASILAGRO  ON      NM182R$  000000000121800000000012190000000001218000000000121800000000012190000000000000000000000000000002000000000000000100000000000000121852000000000000009999123100000010000000000000BRAGROACNOR7106
012017011612ALMI11B     010FII TORRE ALCI      MB   R$  000000018550000000001860000000000184000000000018578400000001860000000000185500000000018600000018000000000000000051000000000009474997000000000000009999123100000010000000000000BRALMICTF003245
012017011602ALPA3       010ALPARGATAS  ON      N1   R$  000000000092500000000009790000000000925000000000095200000000009790000000000931000000000097900008000000000000001200000000000001142400000000000000009999123100000010000000000000BRALPAACNOR0219
012017011696ALPA3F      020ALPARGATAS  ON      N1   R$  000000000098400000000009840000000000903000000000091300000000009030000000000878000000000097900002000000000000000023000000000000021012000000000000009999123100000010000000000000BRALPAACNOR0219
012017011602ALPA4       010ALPARGATAS  PN      N1   R$  000000000100800000000010210000000000995000000000101400000000010190000000001007000000000101900950000000000000153800000000000156025700000000000000009999123100000010000000000000BRALPAACNPR7219
012017011696ALPA4F      020ALPARGATAS  PN      N1   R$  000000000101400000000010190000000001000000000000101100000000010190000000001010000000000102000007000000000000000151000000000000152674000000000000009999123100000010000000000000BRALPAACNPR7219
012017011638ALPAA60E    012ALPAE       PN      N1000R$  000000000100700000000010070000000001007000000000100700000000010070000000000000000000000000000001000000000000049400000000000049745800000000000100702017011600000010000000000000BRALPAACNPR7219
012017011602ALSC3       010ALIANSCE    ON      NM   R$  000000000156700000000015750000000001534000000000154900000000015400000000001540000000000156101485000000000000341900000000000529768900000000000000009999123100000010000000000000BRALSCACNOR0110
012017011696ALSC3F      020ALIANSCE    ON      NM   R$  000000000157100000000015710000000001542000000000155400000000015670000000001501000000000160000009000000000000000272000000000000422881000000000000009999123100000010000000000000BRALSCACNOR0110
012017011602ALUP11      010ALUPAR      UNT     N2   R$  000000000181600000000018440000000001763000000000181100000000018090000000001809000000000181502856000000000000422400000000000765336100000000000000009999123100000010000000000000BRALUPCDAM15105
012017011696ALUP11F     020ALUPAR      UNT     N2   R$  000000000185200000000018520000000001770000000000182400000000018100000000001805000000000183900050000000000000001118000000000002039695000000000000009999123100000010000000000000BRALUPCDAM15105
012017011602AMAR3       010LOJAS MARISAON      NM   R$  000000000067400000000007050000000000668000000000067600000000006680000000000667000000000066800204000000000000065200000000000044134900000000000000009999123100000010000000000000BRAMARACNOR4112
012017011696AMAR3F      020LOJAS MARISAON      NM   R$  000000000069100000000006910000000000668000000000067200000000006690000000000641000000000068400009000000000000000147000000000000098896000000000000009999123100000010000000000000BRAMARACNOR4112
012017011602ANIM3       010ANIMA       ON      NM   R$  000000000143000000000014640000000001409000000000143400000000014090000000001409000000000142500243000000000000044200000000000063394600000000000000009999123100000010000000000000BRANIMACNOR6103
012017011696ANIM3F      020ANIMA       ON      NM   R$  000000000144400000000015100000000001418000000000144900000000014200000000001420000000000144300044000000000000000978000000000001417680000000000000009999123100000010000000000000BRANIMACNOR6103
012017011602ARZZ3       010AREZZO CO   ON      NM   R$  000000000274200000000028040000000002683000000000275800000000027400000000002738000000000274700286000000000000039400000000000108692000000000000000009999123100000010000000000000BRARZZACNOR3123
012017011696ARZZ3F      020AREZZO CO   ON      NM   R$  000000000275400000000027540000000002735000000000274400000000027490000000002700000000000276000004000000000000000095000000000000260707000000000000009999123100000010000000000000BRARZZACNOR3123
012017011608ATOM3       010ATOMPAR     ON           R$  000000000030800000000003100000000000302000000000030400000000003050000000000303000000000030600037000000000000020600000000000006268200000000000000009999123100000010000000000000BRATOMACNOR1102
012017011696ATOM3F      020ATOMPAR     ON           R$  000000000031000000000003100000000000300000000000030500000000003000000000000300000000000031000003000000000000000074000000000000022600000000000000009999123100000010000000000000BRATOMACNOR1102
012017011602AZEV4       010AZEVEDO     PN           R$  000000000010500000000001050000000000105000000000010500000000001050000000000105000000000010900002000000000000005000000000000000525000000000000000009999123100000010000000000000BRAZEVACNPR7116
012017011602BAHI3       010BAHEMA      ON           R$  000000000300000000000030000000000003000000000000300000000000030000000000002800000000000300000001000000000000000300000000000000900000000000000000009999123100000010000000000000BRBAHIACNOR1069
012017011602BAUH4       010EXCELSIOR   PN           R$  000000000094000000000009450000000000940000000000094100000000009450000000000912000000000094500003000000000000000600000000000000565000000000000000009999123100000010000000000000BRBAUHACNPR3111
012017011602BAZA3       010AMAZONIA    ON           R$  000000000289100000000028910000000002852000000000286900000000028690000000002860000000000287000014000000000000001900000000000005451500000000000000009999123100000010000000000000BRBAZAACNOR0170
012017011696BAZA3F      020AMAZONIA    ON           R$  000000000285600000000028870000000002856000000000287400000000028650000000002865000000000289900003000000000000000112000000000000321993000000000000009999123100000010000000000000BRBAZAACNOR0170
012017011602BBAS3       010BRASIL      ON      NM   R$  000000000285000000000028850000000002828000000000285600000000028460000000002846000000000284809683000000000003489000000000009966788800000000000000009999123100000010000000000000BRBBASACNOR3265
012017011696BBAS3F      020BRASIL      ON      NM   R$  000000000284700000000028850000000002835000000000286000000000028760000000002842000000000287600302000000000000006825000000000019524381000000000000009999123100000010000000000000BRBBASACNOR3265
012017011662BBAS3T      030BRASIL      ON      NM016R$  000000000289500000000028960000000002889000000000289400000000028900000000000000000000000000000004000000000000002300000000000006658415000000000000009999123100000010000000000000BRBBASACNOR3265
012017011662BBAS3T      030BRASIL      ON      NM038R$  000000000291900000000029200000000002884000000000290100000000028850000000000000000000000000000004000000000000001000000000000002901937000000000000009999123100000010000000000000BRBBASACNOR3265
012017011662BBAS3T      030BRASIL      ON      NM060R$  000000000290000000000029330000000002900000000000293200000000029330000000000000000000000000000004000000000000105200000000000308536337000000000000009999123100000010000000000000BRBBASACNOR3265
012017011662BBAS3T      030BRASIL      ON      NM091R$  000000000292700000000029280000000002927000000000292700000000029280000000000000000000000000000004000000000000020000000000000058553604000000000000009999123100000010000000000000BRBBASACNOR3265
012017011638BBASA16E    012BBAS        ON      NM000R$  000000000157200000000015720000000001572000000000157200000000015720000000000000000000000000000001000000000000004900000000000007702800000000000157202017011600000010000000000000BRBBASACNOR3265
012017011638BBASA20E    012BBAS        ON      NM000R$  000000000202200000000020220000000002022000000000202200000000020220000000000000000000000000000001000000000000001900000000000003841800000000000202202017011600000010000000000000BRBBASACNOR3265
012017011638BBASA21E    012BBAS        ON      NM000R$  000000000212200000000021220000000002122000000000212200000000021220000000000000000000000000000001000000000000000400000000000000848800000000000212202017011600000010000000000000BRBBASACNOR3265
012017011638BBASA23E    012BBAS        ON      NM000R$  000000000227200000000022720000000002272000000000227200000000022720000000000000000000000000000008000000000000065200000000000148134400000000000227202017011600000010000000000000BRBBASACNOR3265
012017011638BBASA24E    012BBAS        ON      NM000R$  000000000242200000000024220000000002422000000000242200000000024220000000000000000000000000000006000000000000062600000000000151617200000000000242202017011600000010000000000000BRBBASACNOR3265
012017011638BBASA25E    012BBAS        ON      NM000R$  000000000252200000000025220000000002522000000000252200000000025220000000000000000000000000000031000000000000210400000000000530628800000000000252202017011600000010000000000000BRBBASACNOR3265
012017011638BBASA26E    012BBAS        ON      NM000R$  000000000267200000000026720000000002672000000000267200000000026720000000000000000000000000000083000000000001501600000000004012275200000000000267202017011600000010000000000000BRBBASACNOR3265
012017011638BBASA27E    012BBAS        ON      NM000R$  000000000272200000000027220000000002722000000000272200000000027220000000000000000000000000000082000000000000248900000000000677505800000000000272202017011600000010000000000000BRBBASACNOR3265
012017011638BBASA28E    012BBAS        ON      NM000R$  000000000282200000000028220000000002822000000000282200000000028220000000000000000000000000000157000000000000655900000000001850949800000000000282202017011600000010000000000000BRBBASACNOR3265
012017011638BBASA3E     012BBASE       ON      NM000R$  000000000199700000000019970000000001997000000000199700000000019970000000000000000000000000000006000000000000017300000000000034548100000000000199702017011600000010000000000000BRBBASACNOR3265
012017011638BBASA47E    012BBAS        ON      NM000R$  000000000177200000000017720000000001772000000000177200000000017720000000000000000000000000000001000000000000001000000000000001772000000000000177202017011600000010000000000000BRBBASACNOR3265
012017011638BBASA49E    012BBAS        ON      NM000R$  000000000197200000000019720000000001972000000000197200000000019720000000000000000000000000000001000000000000001100000000000002169200000000000197202017011600000010000000000000BRBBASACNOR3265
012017011638BBASA53E    012BBAS        ON      NM000R$  000000000237200000000023720000000002372000000000237200000000023720000000000000000000000000000004000000000000024200000000000057402400000000000237202017011600000010000000000000BRBBASACNOR3265
012017011638BBASA54E    012BBAS        ON      NM000R$  000000000247200000000024720000000002472000000000247200000000024720000000000000000000000000000018000000000000184400000000000455836800000000000247202017011600000010000000000000BRBBASACNOR3265
012017011638BBASA55E    012BBAS        ON      NM000R$  000000000257200000000025720000000002572000000000257200000000025720000000000000000000000000000037000000000000348400000000000896084800000000000257202017011600000010000000000000BRBBASACNOR3265
012017011638BBASA56E    012BBAS        ON      NM000R$  000000000262200000000026220000000002622000000000262200000000026220000000000000000000000000000046000000000000119500000000000313329000000000000262202017011600000010000000000000BRBBASACNOR3265
012017011638BBASA57E    012BBAS        ON      NM000R$  000000000277200000000027720000000002772000000000277200000000027720000000000000000000000000000059000000000000767400000000002127232800000000000277202017011600000010000000000000BRBBASACNOR3265
012017011638BBASA5E     012BBASE       ON      NM000R$  000000000169700000000016970000000001697000000000169700000000016970000000000000000000000000000003000000000000005600000000000009503200000000000169702017011600000010000000000000BRBBASACNOR3265
012017011638BBASA63E    012BBASE       ON      NM000R$  000000000229700000000022970000000002297000000000229700000000022970000000000000000000000000000002000000000000006600000000000015160200000000000229702017011600000010000000000000BRBBASACNOR3265
012017011638BBASA65E    012BBASE       ON      NM000R$  000000000249700000000024970000000002497000000000249700000000024970000000000000000000000000000006000000000000018600000000000046444200000000000249702017011600000010000000000000BRBBASACNOR3265
012017011638BBASA67E    012BBASE       ON      NM000R$  000000000174700000000017470000000001747000000000174700000000017470000000000000000000000000000001000000000000009800000000000017120600000000000174702017011600000010000000000000BRBBASACNOR3265
012017011638BBASA75E    012BBASE       ON      NM000R$  000000000259700000000025970000000002597000000000259700000000025970000000000000000000000000000012000000000000040900000000000106217300000000000259702017011600000010000000000000BRBBASACNOR3265
012017011638BBASA80E    012BBASE       ON      NM000R$  000000000204700000000020470000000002047000000000204700000000020470000000000000000000000000000002000000000000003300000000000006755100000000000204702017011600000010000000000000BRBBASACNOR3265
012017011638BBASA81E    012BBASE       ON      NM000R$  000000000214700000000021470000000002147000000000214700000000021470000000000000000000000000000006000000000000200700000000000430902900000000000214702017011600000010000000000000BRBBASACNOR3265
012017011638BBASA83E    012BBASE       ON      NM000R$  000000000234700000000023470000000002347000000000234700000000023470000000000000000000000000000008000000000000031100000000000072991700000000000234702017011600000010000000000000BRBBASACNOR3265
012017011638BBASA86E    012BBASE       ON      NM000R$  000000000264700000000026470000000002647000000000264700000000026470000000000000000000000000000006000000000000055700000000000147437900000000000264702017011600000010000000000000BRBBASACNOR3265
012017011638BBASA88E    012BBASE       ON      NM000R$  000000000284700000000028470000000002847000000000284700000000028470000000000000000000000000000012000000000000269200000000000766412400000000000284702017011600000010000000000000BRBBASACNOR3265
012017011638BBASA98E    012BBASE       ON      NM000R$  000000000279700000000027970000000002797000000000279700000000027970000000000000000000000000000031000000000000081100000000000226836700000000000279702017011600000010000000000000BRBBASACNOR3265
012017011678BBASB1      070BBAS  FM    ON      NM000R$  000000000005700000000000600000000000053000000000005500000000000600000000000012000000000015500031000000000000022000000000000001221000000000000307202017022000000010000000000000BRBBASACNOR3263
012017011678BBASB11     070BBASE       ON      NM000R$  000000000005300000000000540000000000043000000000005000000000000450000000000040000000000006900015000000000000019000000000000000954200000000000309702017022000000010000000000000BRBBASACNOR3263
012017011678BBASB2      070BBAS        ON      NM000R$  000000000002400000000000240000000000022000000000002300000000000220000000000001000000000004000019000000000000047300000000000001091900000000000327202017022000000010000000000000BRBBASACNOR3263
012017011678BBASB25     070BBAS        ON      NM000R$  000000000038000000000004020000000000364000000000037300000000003670000000000025000000000000000212000000000000053500000000000019973200000000000252202017022000000010000000000000BRBBASACNOR3263
012017011678BBASB27     070BBAS        ON      NM000R$  000000000022800000000002280000000000228000000000022800000000002280000000000170000000000000000001000000000000000100000000000000022800000000000272202017022000000010000000000000BRBBASACNOR3263
012017011678BBASB28     070BBAS        ON      NM000R$  000000000016100000000001700000000000146000000000015700000000001530000000000004000000000018000193000000000000096500000000000015232300000000000282202017022000000010000000000000BRBBASACNOR3263
012017011678BBASB29     070BBAS        ON      NM000R$  000000000010000000000001150000000000095000000000010400000000001000000000000095000000000010900170000000000000147700000000000015446000000000000292202017022000000010000000000000BRBBASACNOR3263
012017011678BBASB3      070BBASE       ON      NM000R$  000000000007700000000000770000000000072000000000007300000000000720000000000000000000000000000002000000000000001200000000000000087900000000000299702017022000000010000000000000BRBBASACNOR3263
012017011678BBASB30     070BBAS        ON      NM000R$  000000000007400000000000750000000000061000000000006900000000000630000000000063000000000007400077000000000000086100000000000005994200000000000302202017022000000010000000000000BRBBASACNOR3263
012017011678BBASB31     070BBAS        ON      NM000R$  000000000004500000000000490000000000040000000000004400000000000400000000000040000000000004400031000000000000036100000000000001592100000000000312202017022000000010000000000000BRBBASACNOR3263
012017011678BBASB32     070BBAS        ON      NM000R$  000000000002900000000000310000000000027000000000002900000000000270000000000025000000000002800102000000000000174800000000000005076800000000000322202017022000000010000000000000BRBBASACNOR3263
012017011678BBASB33     070BBAS        ON      NM000R$  000000000001800000000000190000000000018000000000001800000000000180000000000016000000000000000006000000000000005700000000000000103600000000000332202017022000000010000000000000BRBBASACNOR3263
012017011678BBASB51     070BBAS        ON      NM000R$  000000000071000000000007100000000000710000000000071000000000007100000000000000000000000000000002000000000000000400000000000000284000000000000217202017022000000010000000000000BRBBASACNOR3263
012017011678BBASB57     070BBAS  FM    ON      NM000R$  000000000019600000000001960000000000173000000000018200000000001780000000000001000000000000000003000000000000005400000000000000983300000000000277202017022000000010000000000000BRBBASACNOR3263
012017011678BBASB58     070BBAS  FM    ON      NM000R$  000000000013000000000001410000000000117000000000012200000000001200000000000100000000000013800020000000000000155200000000000019044900000000000287202017022000000010000000000000BRBBASACNOR3263
012017011678BBASB59     070BBAS  FM    ON      NM000R$  000000000009000000000000940000000000078000000000008400000000000780000000000050000000000014500014000000000000023900000000000002012800000000000297202017022000000010000000000000BRBBASACNOR3263
012017011678BBASB61     070BBAS  FM    ON      NM000R$  000000000003800000000000380000000000031000000000003400000000000330000000000033000000000003400146000000000000237100000000000008203500000000000317202017022000000010000000000000BRBBASACNOR3263
012017011678BBASB69     070BBASE       ON      NM000R$  000000000009900000000000990000000000099000000000009900000000000990000000000005000000000000000003000000000000003800000000000000376200000000000294702017022000000010000000000000BRBBASACNOR3263
012017011678BBASB77     070BBASE       ON      NM000R$  000000000020200000000002140000000000190000000000020200000000001900000000000001000000000000000236000000000000069000000000000013998900000000000274702017022000000010000000000000BRBBASACNOR3261
012017011678BBASB78     070BBASE       ON      NM000R$  000000000105500000000010550000000001055000000000105500000000010550000000001034000000000000000001000000000000002000000000000002110000000000000179702017022000000010000000000000BRBBASACNOR3257
012017011678BBASB83     070BBAS        ON      NM000R$  000000000001500000000000150000000000014000000000001400000000000150000000000010000000000002200008000000000000085800000000000001259000000000000337202017022000000010000000000000BRBBASACNOR3263
012017011678BBASB88     070BBASE       ON      NM000R$  000000000010300000000001030000000000103000000000010300000000001030000000000000000000000000000002000000000000028600000000000002945800000000000284702017022000000010000000000000BRBBASACNOR3265
012017011678BBASB89     070BBASE       ON      NM000R$  000000000011700000000001220000000000106000000000011700000000001100000000000000000000000000000020000000000000037900000000000004470900000000000289702017022000000010000000000000BRBBASACNOR3263
012017011678BBASB90     070BBASE       ON      NM000R$  000000000006800000000000680000000000068000000000006800000000000680000000000000000000000007800001000000000000000500000000000000034000000000000304702017022000000010000000000000BRBBASACNOR3263
012017011678BBASC1      070BBASE       ON      NM000R$  000000000011000000000001100000000000110000000000011000000000001100000000000000000000000000000001000000000000060000000000000006600000000000000309702017032000000010000000000000BRBBASACNOR3265
012017011678BBASC22     070BBAS        ON      NM000R$  000000000067000000000006700000000000670000000000067000000000006700000000000000000000000000000003000000000000017700000000000011859000000000000222202017032000000010000000000000BRBBASACNOR3264
012017011678BBASC29     070BBAS        ON      NM000R$  000000000016000000000001650000000000159000000000016400000000001590000000000136000000000016500003000000000000003400000000000000557800000000000292202017032000000010000000000000BRBBASACNOR3264
012017011678BBASC30     070BBAS        ON      NM000R$  000000000011000000000001280000000000110000000000011000000000001230000000000100000000000013500003000000000000063200000000000006994600000000000302202017032000000010000000000000BRBBASACNOR3264
012017011678BBASC32     070BBAS        ON      NM000R$  000000000007400000000000740000000000061000000000006100000000000610000000000002000000000009200006000000000000407000000000000025228000000000000322202017032000000010000000000000BRBBASACNOR3264
012017011678BBASC58     070BBAS  FM    ON      NM000R$  000000000017600000000001760000000000176000000000017600000000001760000000000000000000000000000001000000000000000500000000000000088000000000000287202017032000000010000000000000BRBBASACNOR3264
012017011678BBASC61     070BBAS  FM    ON      NM000R$  000000000008500000000000850000000000071000000000007700000000000730000000000073000000000008100086000000000000105300000000000008186000000000000317202017032000000010000000000000BRBBASACNOR3264
012017011678BBASC88     070BBASE       ON      NM000R$  000000000018700000000001870000000000186000000000018600000000001860000000000000000000000000000002000000000000050000000000000009305000000000000284702017032000000010000000000000BRBBASACNOR3265
012017011678BBASD1      070BBAS        ON      NM000R$  000000000010000000000001000000000000100000000000010000000000001000000000000000000000000000000002000000000000190000000000000019000000000000000318802017041700000010000000000000BRBBASACNOR3265
012017011678BBASD28     070BBAS        ON      NM000R$  000000000028200000000002820000000000282000000000028200000000002820000000000272000000000000000001000000000000000100000000000000028200000000000278802017041700000010000000000000BRBBASACNOR3263
012017011642BBASM29E    013BBASE       ON      NM000R$  000000000292200000000029220000000002922000000000292200000000029220000000000000000000000000000003000000000000010200000000000029804400000000000292202017011600000010000000000000BRBBASACNOR3265
012017011642BBASM58E    013BBASE       ON      NM000R$  000000000287200000000028720000000002872000000000287200000000028720000000000000000000000000000008000000000000015700000000000045090400000000000287202017011600000010000000000000BRBBASACNOR3265
012017011642BBASM59E    013BBASE       ON      NM000R$  000000000297200000000029720000000002972000000000297200000000029720000000000000000000000000000002000000000000028900000000000085890800000000000297202017011600000010000000000000BRBBASACNOR3265
012017011642BBASM89E    013BBASE       ON      NM000R$  000000000294700000000029470000000002947000000000294700000000029470000000000000000000000000000002000000000000002000000000000005894000000000000294702017011600000010000000000000BRBBASACNOR3265
012017011642BBASM90E    013BBASE       ON      NM000R$  000000000304700000000030470000000003047000000000304700000000030470000000000000000000000000000001000000000000002500000000000007617500000000000304702017011600000010000000000000BRBBASACNOR3265
012017011682BBASN23     080BBASE       ON      NM000R$  000000000000800000000000080000000000007000000000000700000000000070000000000007000000000003000003000000000000011300000000000000090100000000000232202017022000000010000000000000BRBBASACNOR3263
012017011682BBASN24     080BBASE       ON      NM000R$  000000000001600000000000160000000000012000000000001400000000000120000000000011000000000000000009000000000000008000000000000000118000000000000242202017022000000010000000000000BRBBASACNOR3263
012017011682BBASN25     080BBASE       ON      NM000R$  000000000002500000000000270000000000019000000000002000000000000190000000000020000000000002400015000000000000014900000000000000311800000000000252202017022000000010000000000000BRBBASACNOR3263
012017011682BBASN26     080BBASE       ON      NM000R$  000000000004200000000000420000000000033000000000003500000000000340000000000031000000000004100007000000000000007800000000000000278400000000000262202017022000000010000000000000BRBBASACNOR3263
012017011682BBASN27     080BBASE       ON      NM000R$  000000000006900000000000690000000000051000000000005700000000000530000000000057000000000006000011000000000000018000000000000001033100000000000272202017022000000010000000000000BRBBASACNOR3263
012017011682BBASN28     080BBASE       ON      NM000R$  000000000009000000000000900000000000087000000000008700000000000870000000000071000000000009500006000000000000021200000000000001845300000000000282202017022000000010000000000000BRBBASACNOR3263
012017011682BBASN29     080BBASE       ON      NM000R$  000000000014000000000001450000000000132000000000013600000000001320000000000107000000000018500083000000000000008300000000000001133800000000000292202017022000000010000000000000BRBBASACNOR3263
012017011682BBASN30     080BBASE       ON      NM000R$  000000000021300000000002130000000000213000000000021300000000002130000000000000000000000000000001000000000000001000000000000000213000000000000302202017022000000010000000000000BRBBASACNOR3263
012017011682BBASN53     080BBASE       ON      NM000R$  000000000001000000000000100000000000010000000000001000000000000100000000000001000000000000000004000000000000056000000000000000560000000000000237202017022000000010000000000000BRBBASACNOR3263
012017011682BBASN55     080BBASE       ON      NM000R$  000000000002500000000000250000000000025000000000002500000000000250000000000012000000000000000004000000000000010000000000000000250000000000000257202017022000000010000000000000BRBBASACNOR3263
012017011682BBASN58     080BBASE       ON      NM000R$  000000000010500000000001180000000000105000000000011500000000001180000000000000000000000000000003000000000000119300000000000013837500000000000287202017022000000010000000000000BRBBASACNOR3263
012017011682BBASN6      080BBASE       ON      NM000R$  000000000003600000000000360000000000030000000000003000000000000310000000000029000000000000000013000000000000055800000000000001685300000000000259702017022000000010000000000000BRBBASACNOR3263
012017011682BBASN68     080BBASE FM    ON      NM000R$  000000000009000000000000900000000000084000000000008900000000000840000000000000000000000000000008000000000000054000000000000004836000000000000279702017022000000010000000000000BRBBASACNOR3263
012017011682BBASN74     080BBASE       ON      NM000R$  000000000001500000000000150000000000015000000000001500000000000150000000000010000000000003200001000000000000000600000000000000009000000000000244702017022000000010000000000000BRBBASACNOR3261
012017011682BBASN76     080BBASE       ON      NM000R$  000000000003800000000000400000000000038000000000003800000000000400000000000000000000000006300008000000000000009200000000000000354600000000000264702017022000000010000000000000BRBBASACNOR3263
012017011682BBASN89     080BBASE FM    ON      NM000R$  000000000011700000000001170000000000117000000000011700000000001170000000000000000000000000000001000000000000000600000000000000070200000000000289702017022000000010000000000000BRBBASACNOR3263
012017011682BBASO26     080BBASE       ON      NM000R$  000000000006300000000000630000000000063000000000006300000000000630000000000000000000000006500001000000000000002000000000000000126000000000000262202017032000000010000000000000BRBBASACNOR3264
012017011682BBASO27     080BBASE       ON      NM000R$  000000000009900000000000990000000000091000000000009200000000000910000000000060000000000000000002000000000000000700000000000000064500000000000272202017032000000010000000000000BRBBASACNOR3264
012017011682BBASO87     080BBASE FM    ON      NM000R$  000000000008500000000000860000000000082000000000008400000000000820000000000002000000000000000008000000000000012100000000000001019900000000000269702017032000000010000000000000BRBBASACNOR3264
012017011682BBASP68     080BBASE       ON      NM000R$  000000000018000000000001800000000000180000000000018000000000001800000000000000000000000000000002000000000000190000000000000034200000000000000286302017041700000010000000000000BRBBASACNOR3263
012017011682BBASP75     080BBASE       ON      NM000R$  000000000006000000000000600000000000060000000000006000000000000600000000000000000000000000000002000000000000190000000000000011400000000000000253802017041700000010000000000000BRBBASACNOR3265
012017011682BBASP76     080BBASE       ON      NM000R$  000000000008500000000000880000000000078000000000008000000000000780000000000000000000000000000003000000000000002900000000000000234000000000000261302017041700000010000000000000BRBBASACNOR3259
012017011602BBDC3       010BRADESCO    ON      N1   R$  000000000305400000000030990000000003053000000000308100000000030880000000003080000000000308803349000000000000583000000000001796790700000000000000009999123100000010000000000000BRBBDCACNOR1659
012017011696BBDC3F      020BRADESCO    ON      N1   R$  000000000307500000000030910000000003049000000000307600000000030910000000003064000000000309100064000000000000001717000000000005282371000000000000009999123100000010000000000000BRBBDCACNOR1659
012017011602BBDC4       010BRADESCO    PN      N1   R$  000000000311000000000031290000000003080000000000311100000000031130000000003112000000000311311353000000000004799500000000014931269300000000000000009999123100000010000000000000BRBBDCACNPR8659
012017011696BBDC4F      020BRADESCO    PN      N1   R$  000000000310300000000031290000000003080000000000310600000000031030000000003103000000000310900153000000000000003002000000000009325965000000000000009999123100000010000000000000BRBBDCACNPR8659
012017011662BBDC4T      030BRADESCO    PN      N1030R$  000000000313600000000031370000000003136000000000313600000000031370000000000000000000000000000002000000000000000400000000000001254761000000000000009999123100000010000000000000BRBBDCACNPR8659
012017011638BBDCA10E    012BBDCE       PN      N1000R$  000000000204100000000020410000000002041000000000204100000000020410000000000000000000000000000002000000000000446240000000000910775840000000000204102017011600000010000000000000BRBBDCACNPR8659
012017011638BBDCA13E    012BBDCE       PN      N1000R$  000000000259800000000025980000000002598000000000259800000000025980000000000000000000000000000007000000000000499600000000001297960800000000000259802017011600000010000000000000BRBBDCACNPR8659
012017011638BBDCA1E     012BBDC        PN      N1000R$  000000000183600000000018360000000001836000000000183600000000018360000000000000000000000000000001000000000000006600000000000012117600000000000183602017011600000010000000000000BRBBDCACNPR8659
012017011638BBDCA21E    012BBDC        PN      N1000R$  000000000262300000000026230000000002623000000000262300000000026230000000000000000000000000000004000000000000025100000000000065837300000000000262302017011600000010000000000000BRBBDCACNPR8659
012017011638BBDCA23E    012BBDC        PN      N1000R$  000000000272300000000027230000000002723000000000272300000000027230000000000000000000000000000027000000000000265300000000000722411900000000000272302017011600000010000000000000BRBBDCACNPR8659
012017011638BBDCA25E    012BBDC        PN      N1000R$  000000000252300000000025230000000002523000000000252300000000025230000000000000000000000000000002000000000000120000000000000302760000000000000252302017011600000010000000000000BRBBDCACNPR8659
012017011638BBDCA27E    012BBDC        PN      N1000R$  000000000160900000000016090000000001609000000000160900000000016090000000000000000000000000000003000000000000063030000000000101415270000000000160902017011600000010000000000000BRBBDCACNPR8659
012017011638BBDCA28E    012BBDCE       PN      N1000R$  000000000195000000000019500000000001950000000000195000000000019500000000000000000000000000000006000000000000127710000000000249034500000000000195002017011600000010000000000000BRBBDCACNPR8659
012017011638BBDCA29E    012BBDC        PN      N1000R$  000000000292900000000029290000000002929000000000292900000000029290000000000000000000000000000063000000000002050000000000006004450000000000000292902017011600000010000000000000BRBBDCACNPR8659
012017011638BBDCA2E     012BBDCE       ON      N1000R$  000000000231300000000023130000000002313000000000231300000000023130000000000000000000000000000001000000000000000100000000000000231300000000000231302017011600000010000000000000BRBBDCACNOR1659
012017011638BBDCA30E    012BBDCE       PN      N1000R$  000000000199500000000019950000000001995000000000199500000000019950000000000000000000000000000002000000000000050160000000000100069200000000000199502017011600000010000000000000BRBBDCACNPR8659
012017011638BBDCA31E    012BBDC        PN      N1000R$  000000000311100000000031110000000003111000000000311100000000031110000000000000000000000000000042000000000002068000000000006433548000000000000311102017011600000010000000000000BRBBDCACNPR8659
012017011638BBDCA33E    012BBDC        PN      N1000R$  000000000283900000000028390000000002839000000000283900000000028390000000000000000000000000000037000000000000433000000000001229287000000000000283902017011600000010000000000000BRBBDCACNPR8659
012017011638BBDCA39E    012BBDCE       PN      N1000R$  000000000163200000000016320000000001632000000000163200000000016320000000000000000000000000000003000000000000025080000000000040930560000000000163202017011600000010000000000000BRBBDCACNPR8659
012017011638BBDCA41E    012BBDCE       ON      N1000R$  000000000203600000000020360000000002036000000000203600000000020360000000000000000000000000000002000000000000059070000000000120266520000000000203602017011600000010000000000000BRBBDCACNOR1659
012017011638BBDCA42E    012BBDCE       PN      N1000R$  000000000295400000000029540000000002954000000000295400000000029540000000000000000000000000000018000000000002723800000000008046105200000000000295402017011600000010000000000000BRBBDCACNPR8659
012017011638BBDCA43E    012BBDCE       PN      N1000R$  000000000305400000000030540000000003054000000000305400000000030540000000000000000000000000000013000000000000187900000000000573846600000000000305402017011600000010000000000000BRBBDCACNPR8659
012017011638BBDCA46E    012BBDC        PN      N1000R$  000000000257300000000025730000000002573000000000257300000000025730000000000000000000000000000003000000000000004000000000000010292000000000000257302017011600000010000000000000BRBBDCACNPR8659
012017011638BBDCA58E    012BBDC        PN      N1000R$  000000000247300000000024730000000002473000000000247300000000024730000000000000000000000000000001000000000000192500000000000476052500000000000247302017011600000010000000000000BRBBDCACNPR8659
012017011638BBDCA60E    012BBDC        PN      N1000R$  000000000297900000000029790000000002979000000000297900000000029790000000000000000000000000000028000000000000344000000000001024776000000000000297902017011600000010000000000000BRBBDCACNPR8659
012017011638BBDCA62E    012BBDCE       PN      N1000R$  000000000281400000000028140000000002814000000000281400000000028140000000000000000000000000000032000000000000915100000000002575091400000000000281402017011600000010000000000000BRBBDCACNPR8659
012017011638BBDCA63E    012BBDCE       PN      N1000R$  000000000290400000000029040000000002904000000000290400000000029040000000000000000000000000000022000000000000173960000000000505179840000000000290402017011600000010000000000000BRBBDCACNPR8659
012017011638BBDCA67E    012BBDC        ON      N1000R$  000000000183100000000018310000000001831000000000183100000000018310000000000000000000000000000001000000000000247500000000000453172500000000000183102017011600000010000000000000BRBBDCACNOR1659
012017011638BBDCA69E    012BBDCE       ON      N1000R$  000000000226300000000022630000000002263000000000226300000000022630000000000000000000000000000001000000000000495000000000001120185000000000000226302017011600000010000000000000BRBBDCACNOR1659
012017011638BBDCA70E    012BBDC        PN      N1000R$  000000000302900000000030290000000003029000000000302900000000030290000000000000000000000000000039000000000003866100000000011710416900000000000302902017011600000010000000000000BRBBDCACNPR8659
012017011638BBDCA71E    012BBDCE       PN      N1000R$  000000000185900000000018590000000001859000000000185900000000018590000000000000000000000000000002000000000000248770000000000462463430000000000185902017011600000010000000000000BRBBDCACNPR8659
012017011638BBDCA74E    012BBDC        PN      N1000R$  000000000156400000000015640000000001564000000000156400000000015640000000000000000000000000000002000000000000011000000000000017204000000000000156402017011600000010000000000000BRBBDCACNPR8659
012017011638BBDCA75E    012BBDCE       PN      N1000R$  000000000190400000000019040000000001904000000000190400000000019040000000000000000000000000000001000000000000022000000000000041888000000000000190402017011600000010000000000000BRBBDCACNPR8659
012017011638BBDCA76E    012BBDCE       PN      N1000R$  000000000226800000000022680000000002268000000000226800000000022680000000000000000000000000000003000000000000150200000000000340653600000000000226802017011600000010000000000000BRBBDCACNPR8659
012017011638BBDCA77E    012BBDC        PN      N1000R$  000000000267300000000026730000000002673000000000267300000000026730000000000000000000000000000020000000000000663700000000001774070100000000000267302017011600000010000000000000BRBBDCACNPR8659
012017011638BBDCA78E    012BBDC        PN      N1000R$  000000000277300000000027730000000002773000000000277300000000027730000000000000000000000000000021000000000000524000000000001453052000000000000277302017011600000010000000000000BRBBDCACNPR8659
012017011638BBDCA79E    012BBDC        PN      N1000R$  000000000165400000000016540000000001654000000000165400000000016540000000000000000000000000000003000000000000220440000000000364607760000000000165402017011600000010000000000000BRBBDCACNPR8659
012017011638BBDCA82E    012BBDCE       PN      N1000R$  000000000218600000000021860000000002186000000000218600000000021860000000000000000000000000000001000000000000004900000000000010711400000000000218602017011600000010000000000000BRBBDCACNPR8659
012017011638BBDCA85E    012BBDCE       PN      N1000R$  000000000308600000000030860000000003086000000000308600000000030860000000000000000000000000000013000000000000401500000000001239029000000000000308602017011600000010000000000000BRBBDCACNPR8659
012017011638BBDCA87E    012BBDC        ON      N1000R$  000000000255900000000025590000000002559000000000255900000000025590000000000000000000000000000001000000000000009350000000000023926650000000000255902017011600000010000000000000BRBBDCACNOR1659
012017011678BBDCB1      070BBDC  FM    PN      N1000R$  000000000012100000000001370000000000120000000000012600000000001300000000000124000000000013700027000000000000537000000000000067826400000000000309802017022000000010000000000000BRBBDCACNPR8653
012017011678BBDCB2      070BBDCE       PN      N1000R$  000000000009000000000001000000000000081000000000009400000000000940000000000072000000000015000032000000000000075100000000000007088600000000000317302017022000000010000000000000BRBBDCACNPR8651
012017011678BBDCB3      070BBDC  FM    PN      N1000R$  000000000004100000000000510000000000041000000000004900000000000430000000000040000000000005800018000000000000078400000000000003843000000000000329802017022000000010000000000000BRBBDCACNPR8653
012017011678BBDCB36     070BBDCE       PN      N1000R$  000000000001000000000000100000000000010000000000001000000000000100000000000010000000000001200001000000000000001000000000000000010000000000000352302017022000000010000000000000BRBBDCACNPR8655
012017011678BBDCB43     070BBDC  FM    PN      N1000R$  000000000007900000000000850000000000079000000000008200000000000820000000000002000000000008000010000000000000011400000000000000935200000000000319802017022000000010000000000000BRBBDCACNPR8656
012017011678BBDCB44     070BBDC        PN      N1000R$  000000000036200000000003640000000000350000000000035800000000003580000000000358000000000000000136000000000000186500000000000066919400000000000279802017022000000010000000000000BRBBDCACNPR8657
012017011678BBDCB45     070BBDC  FM    PN      N1000R$  000000000019900000000002050000000000188000000000019800000000001880000000000000000000000000000037000000000000024300000000000004818600000000000299802017022000000010000000000000BRBBDCACNPR8657
012017011678BBDCB49     070BBDC  FM    PN      N1000R$  000000000002800000000000280000000000028000000000002800000000000280000000000000000000000000000001000000000000000100000000000000002800000000000339802017022000000010000000000000BRBBDCACNPR8659
012017011678BBDCB54     070BBDC        PN      N1000R$  000000000001700000000000190000000000015000000000001800000000000150000000000000000000000002200003000000000000105800000000000001998400000000000344802017022000000010000000000000BRBBDCACNPR8659
012017011678BBDCC20     070BBDC        PN      N1000R$  000000000004900000000000490000000000049000000000004900000000000490000000000020000000000010000001000000000000000200000000000000009800000000000346802017032000000010000000000000BRBBDCACNPR8659
012017011678BBDCC23     070BBDC  FM    PN      N1000R$  000000000008000000000000800000000000078000000000007900000000000780000000000070000000000000000002000000000000006000000000000000474000000000000331802017032000000010000000000000BRBBDCACNPR8657
012017011678BBDCC32     070BBDC  FM    PN      N1000R$  000000000010900000000001220000000000107000000000011400000000001220000000000000000000000015000024000000000000003600000000000000411000000000000321802017032000000010000000000000BRBBDCACNPR8657
012017011678BBDCC44     070BBDC  FM    PN      N1000R$  000000000005600000000000560000000000056000000000005600000000000560000000000000000000000000000001000000000000000200000000000000011200000000000341802017032000000010000000000000BRBBDCACNPR8657
012017011678BBDCC51     070BBDCE       PN      N1000R$  000000000015700000000001570000000000157000000000015700000000001570000000000000000000000000000001000000000000001000000000000000157000000000000314302017032000000010000000000000BRBBDCACNPR8656
012017011678BBDCC60     070BBDC  FM    PN      N1000R$  000000000025000000000002500000000000250000000000025000000000002500000000000000000000000000000001000000000000000700000000000000175000000000000299502017032000000010000000000000BRBBDCACNPR8657
012017011678BBDCC66     070BBDCE       PN      N1000R$  000000000029800000000002980000000000298000000000029800000000002980000000000000000000000000000001000000000000150000000000000044700000000000000359402018031900000010000000000000BRBBDCACNPR8656
012017011678BBDCF62     070BBDCE       PN      N1000R$  000000000051100000000005110000000000511000000000051100000000005110000000000000000000000000000001000000000000000400000000000000204400000000000281902017061900000010000000000000BRBBDCACNPR8645
012017011642BBDCM51E    013BBDCE       PN      N1000R$  000000000316100000000031610000000003161000000000316100000000031610000000000000000000000000000004000000000000310000000000000979910000000000000316102017011600000010000000000000BRBBDCACNPR8659
012017011642BBDCM65E    013BBDCE       PN      N1000R$  000000000333600000000033360000000003336000000000333600000000033360000000000000000000000000000001000000000000019200000000000064051200000000000333602017011600000010000000000000BRBBDCACNPR8659
012017011682BBDCN1      080BBDCE FM    PN      N1000R$  000000000010000000000001000000000000078000000000008900000000000930000000000057000000000012000023000000000000467700000000000041831000000000000309802017022000000010000000000000BRBBDCACNPR8653
012017011682BBDCN2      080BBDCE       PN      N1000R$  000000000011200000000001120000000000112000000000011200000000001120000000000000000000000000000001000000000000001100000000000000123200000000000317302017022000000010000000000000BRBBDCACNPR8651
012017011682BBDCN43     080BBDCE FM    PN      N1000R$  000000000012600000000001320000000000126000000000012800000000001300000000000000000000000000000007000000000000004000000000000000513600000000000319802017022000000010000000000000BRBBDCACNPR8656
012017011682BBDCN44     080BBDCE       PN      N1000R$  000000000002000000000000200000000000020000000000002000000000000200000000000015000000000002000001000000000000000400000000000000008000000000000279802017022000000010000000000000BRBBDCACNPR8657
012017011682BBDCN45     080BBDCE FM    PN      N1000R$  000000000004900000000000520000000000045000000000004800000000000500000000000000000000000009500033000000000000031700000000000001548700000000000299802017022000000010000000000000BRBBDCACNPR8657
012017011682BBDCN53     080BBDCE       PN      N1000R$  000000000003600000000000410000000000036000000000003600000000000410000000000000000000000006000009000000000000128800000000000004713900000000000294802017022000000010000000000000BRBBDCACNPR8659
012017011682BBDCN79     080BBDCE       PN      N1000R$  000000000002500000000000250000000000025000000000002500000000000250000000000000000000000000000003000000000000010000000000000000250000000000000287302017022000000010000000000000BRBBDCACNPR8653
012017011682BBDCO32     080BBDCE FM    PN      N1000R$  000000000018100000000001830000000000164000000000017400000000001640000000000000000000000000000024000000000000003600000000000000626500000000000321802017032000000010000000000000BRBBDCACNPR8657
012017011682BBDCO60     080BBDCE FM    PN      N1000R$  000000000007200000000000720000000000072000000000007200000000000720000000000002000000000000000001000000000000000700000000000000050400000000000299502017032000000010000000000000BRBBDCACNPR8657
012017011682BBDCO65     080BBDCE       PN      N1000R$  000000000027700000000002770000000000277000000000027700000000002770000000000000000000000000000001000000000000150000000000000041550000000000000309402018031900000010000000000000BRBBDCACNPR8646
012017011682BBDCO74     080BBDCE       PN      N1000R$  000000000010000000000001000000000000087000000000009100000000000870000000000000000000000000000002000000000000000300000000000000027400000000000304302017032000000010000000000000BRBBDCACNPR8646
012017011682BBDCR89     080BBDCE       PN      N1000R$  000000000000100000000000010000000000001000000000000100000000000010000000000000000000000000000001000000000000000400000000000000000400000000000163702017061900000010000000000000BRBBDCACNPR8645
012017011682BBDCR94     080BBDCE       PN      N1000R$  000000000000200000000000020000000000002000000000000200000000000020000000000000000000000000000001000000000000000400000000000000000800000000000209202017061900000010000000000000BRBBDCACNPR8645
012017011682BBDCX36     080BBDCE       PN      N1000R$  000000000050600000000005060000000000490000000000049800000000004900000000000403000000000053800002000000000000000200000000000000099600000000000357002017121800000010000000000000BRBBDCACNPR8652
012017011612BBFI11B     010FII BB PROGRCI      MB   R$  000000024999800000002510000000000247701000000024998800000002510000000000251000000000025499800009000000000000000053000000000013249393000000000000009999123100000010000000000000BRBBFICTF006238
012017011612BBPO11      010FII BB PRGIICI           R$  000000001289900000000129000000000012600000000001282400000000128980000000012834000000001289800611000000000000022354000000000286681186000000000000009999123100000010000000000000BRBBPOCTF003150
012017011612BBRC11      010FII BB CORP CI           R$  000000001202500000000120300000000011900000000001199300000000119500000000011904000000001200000037000000000000001198000000000014368502000000000000009999123100000010000000000000BRBBRCCTF004164
012017011602BBRK3       010BR BROKERS  ON      NM   R$  000000000016300000000001710000000000162000000000016700000000001680000000000167000000000016800278000000000000178900000000000029971800000000000000009999123100000010000000000000BRBBRKACNOR4110
012017011614BBSD11      010BB ETF SP DVCI           R$  000000000443100000000044410000000004419000000000442800000000044190000000000000000000000450000005000000000000000240000000000001062780000000000000009999123100000010000000000000BRBBSDCTF000100
012017011602BBSE3       010BBSEGURIDADEON      NM   R$  000000000273000000000027490000000002685000000000271500000000027050000000002705000000000270813479000000000003116300000000008463737800000000000000009999123100000010000000000000BRBBSEACNOR5107
012017011696BBSE3F      020BBSEGURIDADEON      NM   R$  000000000273500000000027460000000002672000000000271600000000027350000000002699000000000273500180000000000000004737000000000012867396000000000000009999123100000010000000000000BRBBSEACNOR5107
012017011662BBSE3T      030BBSEGURIDADEON      NM038R$  000000000275800000000027590000000002758000000000275800000000027590000000000000000000000000000002000000000000002000000000000005517546000000000000009999123100000010000000000000BRBBSEACNOR5107
012017011638BBSEA24E    012BBSE        ON      NM000R$  000000000243400000000024340000000002434000000000243400000000024340000000000000000000000000000001000000000000001000000000000002434000000000000243402017011600000010000000000000BRBBSEACNOR5107
012017011638BBSEA26E    012BBSE        ON      NM000R$  000000000263400000000026340000000002634000000000263400000000026340000000000000000000000000000002000000000000009600000000000025286400000000000263402017011600000010000000000000BRBBSEACNOR5107
012017011638BBSEA66E    012BBSE        ON      NM000R$  000000000268400000000026840000000002684000000000268400000000026840000000000000000000000000000002000000000000200000000000000536800000000000000268402017011600000010000000000000BRBBSEACNOR5107
012017011678BBSEB27     070BBSE        ON      NM000R$  000000000010900000000001090000000000087000000000009200000000000870000000000000000000000000000013000000000000013400000000000001235000000000000273402017022000000010000000000000BRBBSEACNOR5107
012017011678BBSEB28     070BBSE        ON      NM000R$  000000000005200000000000530000000000048000000000005100000000000480000000000000000000000000000003000000000000002400000000000000124200000000000283402017022000000010000000000000BRBBSEACNOR5107
012017011678BBSEB29     070BBSE        ON      NM000R$  000000000003900000000000390000000000023000000000003200000000000250000000000021000000000003700004000000000000002200000000000000071200000000000293402017022000000010000000000000BRBBSEACNOR5107
012017011678BBSEB30     070BBSE        ON      NM000R$  000000000001600000000000160000000000015000000000001500000000000150000000000013000000000012000003000000000000003500000000000000055500000000000303402017022000000010000000000000BRBBSEACNOR5107
012017011678BBSEB31     070BBSE        ON      NM000R$  000000000001500000000000150000000000015000000000001500000000000150000000000000000000000001800001000000000000001000000000000000015000000000000313402017022000000010000000000000BRBBSEACNOR5107
012017011678BBSEB56     070BBSE  FM    ON      NM000R$  000000000011400000000001140000000000114000000000011400000000001140000000000000000000000000000001000000000000000500000000000000057000000000000268402017022000000010000000000000BRBBSEACNOR5107
012017011678BBSEB57     070BBSE  FM    ON      NM000R$  000000000007300000000000730000000000065000000000006800000000000710000000000000000000000010900010000000000000026500000000000001824900000000000278402017022000000010000000000000BRBBSEACNOR5107
012017011678BBSEB58     070BBSE  FM    ON      NM000R$  000000000003700000000000370000000000037000000000003700000000000370000000000000000000000000000001000000000000002000000000000000074000000000000288402017022000000010000000000000BRBBSEACNOR5107
012017011678BBSEB99     070BBSEE       ON      NM000R$  000000000008800000000000880000000000078000000000008200000000000860000000000000000000000000000006000000000000021300000000000001766300000000000275902017022000000010000000000000BRBBSEACNOR5105
012017011678BBSEC59     070BBSE  FM    ON      NM000R$  000000000004500000000000450000000000045000000000004500000000000450000000000000000000000000000001000000000000220000000000000009900000000000000298402017032000000010000000000000BRBBSEACNOR5107
012017011678BBSED67     070BBSEE       ON      NM000R$  000000000017300000000001730000000000173000000000017300000000001730000000000000000000000000000001000000000000341000000000000058993000000000000274202017041700000010000000000000BRBBSEACNOR5107
012017011678BBSED7      070BBSEE       ON      NM000R$  000000000000100000000000010000000000001000000000000100000000000010000000000000000000000000000001000000000000341000000000000000341000000000000374202017041700000010000000000000BRBBSEACNOR5107
012017011642BBSEM27E    013BBSEE       ON      NM000R$  000000000273400000000027340000000002734000000000273400000000027340000000000000000000000000000002000000000000000900000000000002460600000000000273402017011600000010000000000000BRBBSEACNOR5107
012017011642BBSEM30E    013BBSEE       ON      NM000R$  000000000303400000000030340000000003034000000000303400000000030340000000000000000000000000000001000000000000010600000000000032160400000000000303402017011600000010000000000000BRBBSEACNOR5107
012017011642BBSEM58E    013BBSEE       ON      NM000R$  000000000288400000000028840000000002884000000000288400000000028840000000000000000000000000000001000000000000015000000000000043260000000000000288402017011600000010000000000000BRBBSEACNOR5107
012017011642BBSEM59E    013BBSEE       ON      NM000R$  000000000298400000000029840000000002984000000000298400000000029840000000000000000000000000000002000000000000000800000000000002387200000000000298402017011600000010000000000000BRBBSEACNOR5107
012017011642BBSEM60E    013BBSEE       ON      NM000R$  000000000308400000000030840000000003084000000000308400000000030840000000000000000000000000000001000000000000002000000000000006168000000000000308402017011600000010000000000000BRBBSEACNOR5107
012017011642BBSEM71E    013BBSEE       ON      NM000R$  000000000315900000000031590000000003159000000000315900000000031590000000000000000000000000000001000000000000000100000000000000315900000000000315902017011600000010000000000000BRBBSEACNOR5107
012017011642BBSEM82E    013BBSEE       ON      NM000R$  000000000425900000000042590000000004259000000000425900000000042590000000000000000000000000000001000000000000341500000000001454448500000000000425902017011600000010000000000000BRBBSEACNOR5107
012017011642BBSEM84E    013BBSEE       ON      NM000R$  000000000325900000000032590000000003259000000000325900000000032590000000000000000000000000000001000000000000341500000000001112948500000000000325902017011600000010000000000000BRBBSEACNOR5107
012017011682BBSEN26     080BBSEE       ON      NM000R$  000000000004700000000000470000000000042000000000004400000000000420000000000000000000000005300002000000000000002000000000000000089000000000000263402017022000000010000000000000BRBBSEACNOR5107
012017011682BBSEN58     080BBSEE FM    ON      NM000R$  000000000017900000000001790000000000179000000000017900000000001790000000000000000000000000000001000000000000001000000000000000179000000000000288402017022000000010000000000000BRBBSEACNOR5107
012017011682BBSEN65     080BBSEE       ON      NM000R$  000000000003100000000000310000000000031000000000003100000000000310000000000000000000000000000001000000000000000700000000000000021700000000000255902017022000000010000000000000BRBBSEACNOR5107
012017011682BBSEO55     080BBSEE FM    ON      NM000R$  000000000005500000000000550000000000055000000000005500000000000550000000000000000000000000000001000000000000000300000000000000016500000000000258402017032000000010000000000000BRBBSEACNOR5107
012017011682BBSEO57     080BBSEE FM    ON      NM000R$  000000000008100000000000810000000000081000000000008100000000000810000000000008000000000000000001000000000000000300000000000000024300000000000268402017032000000010000000000000BRBBSEACNOR5106
012017011682BBSEO66     080BBSEE       ON      NM000R$  000000000006200000000000640000000000062000000000006300000000000630000000000000000000000000000003000000000000220000000000000013860000000000000260902017032000000010000000000000BRBBSEACNOR5107
012017011682BBSEO97     080BBSEE       ON      NM000R$  000000000002000000000000210000000000020000000000002000000000000210000000000000000000000000000002000000000000220000000000000004485900000000000243402017032000000010000000000000BRBBSEACNOR5106
012017011682BBSEP56     080BBSEE       ON      NM000R$  000000000009000000000000900000000000090000000000009000000000000900000000000008000000000000000001000000000000000300000000000000027000000000000266702017041700000010000000000000BRBBSEACNOR5107
012017011682BBSEP67     080BBSEE       ON      NM000R$  000000000011100000000001110000000000111000000000011100000000001110000000000000000000000000000001000000000000341000000000000037851000000000000274202017041700000010000000000000BRBBSEACNOR5107
012017011682BBSEP7      080BBSEE       ON      NM000R$  000000000090800000000009080000000000908000000000090800000000009080000000000000000000000000000001000000000000341000000000000309628000000000000374202017041700000010000000000000BRBBSEACNOR5107
012017011602BBTG11      010BTG PACTUAL UNT EJ       R$  000000000159100000000016400000000001591000000000161800000000016150000000001611000000000161501260000000000000269900000000000436805800000000000000009999123100000010000000000000BRBBTGUNT007116
012017011696BBTG11F     020BTG PACTUAL UNT EJ       R$  000000000160600000000016310000000001606000000000162100000000016150000000001590000000000163900011000000000000000302000000000000489786000000000000009999123100000010000000000000BRBBTGUNT007116
012017011662BBTG11T     030BTG PACTUAL UNT EJ    030R$  000000000162200000000016280000000001622000000000162600000000016280000000000000000000000000000008000000000000036000000000000058566511000000000000009999123100000010000000000000BRBBTGUNT007116
012017011612BBVJ11      010FII C JARDIMCI           R$  000000000540100000000054980000000005401000000000541800000000054060000000005405000000000543100013000000000000000776000000000004204940000000000000009999123100000010000000000000BRBBVJCTF001173
012017011612BCFF11B     010FII BC FFII CI  ER  MB   R$  000000000690900000000070000000000006865000000000696600000000070000000000006934000000000700000096000000000000005633000000000039241699000000000000009999123100000010000000000000BRBCFFCTF000182
012017011612BCIA11      010FII BCIA    CI           R$  000000001260000000000126200000000012600000000001260100000000126000000000010602000000000000000116000000000000000160000000000002016160000000000000009999123100000010000000000000BRBCIACTF005119
012017011612BCRI11      010FII BEES CRICI           R$  000000001141500000000114880000000011410000000001143300000000114360000000011445000000001145000053000000000000001725000000000019722601000000000000009999123100000010000000000000BRBCRICTF009119
012017011696BDLL4F      020BARDELLA    PN           R$  000000000335500000000033550000000003355000000000335500000000033550000000003355000000000399900001000000000000000001000000000000003355000000000000009999123100000010000000000000BRBDLLACNPR8151
012017011602BEEF3       010MINERVA     ON      NM   R$  000000000117700000000011960000000001170000000000117900000000011810000000001181000000000118204004000000000000884700000000001043850100000000000000009999123100000010000000000000BRBEEFACNOR6106
012017011696BEEF3F      020MINERVA     ON      NM   R$  000000000119800000000012170000000001165000000000118000000000011870000000001165000000000121700032000000000000000914000000000001078670000000000000009999123100000010000000000000BRBEEFACNOR6106
012017011602BEES3       010BANESTES    ON           R$  000000000028000000000003000000000000280000000000029100000000002980000000000290000000000029800051000000000000052000000000000015171200000000000000009999123100000010000000000000BRBEESACNOR9290
012017011696BEES3F      020BANESTES    ON           R$  000000000030300000000003030000000000259000000000026600000000002590000000000258000000000029800002000000000000000024000000000000006392000000000000009999123100000010000000000000BRBEESACNOR9290
012017011602BEES4       010BANESTES    PN           R$  000000000029400000000002940000000000281000000000028900000000002910000000000285000000000029100012000000000000003100000000000000896300000000000000009999123100000010000000000000BRBEESACNPR6215
012017011602BGIP3       010BANESE      ON           R$  000000000185900000000018590000000001859000000000185900000000018590000000001859000000000186000002000000000000000200000000000000371800000000000000009999123100000010000000000000BRBGIPACNOR1187
012017011602BGIP4       010BANESE      PN           R$  000000000168000000000017000000000001646000000000167500000000016460000000001550000000000164600005000000000000000900000000000001508000000000000000009999123100000010000000000000BRBGIPACNPR8187
012017011602BIOM3       010BIOMM       ON      MA   R$  000000000060400000000006990000000000604000000000069500000000006990000000000610000000000069900003000000000000003100000000000002157400000000000000009999123100000010000000000000BRBIOMACNOR2104
012017011696BIOM3F      020BIOMM       ON      MA   R$  000000000070000000000007000000000000700000000000070000000000007000000000000550000000000070000001000000000000000050000000000000035000000000000000009999123100000010000000000000BRBIOMACNOR2104
012017011602BMEB3       010MERC BRASIL ON           R$  000000000055000000000005590000000000520000000000054800000000005200000000000540000000000057900009000000000000001200000000000000657800000000000000009999123100000010000000000000BRBMEBACNOR8193
012017011696BMEB3F      020MERC BRASIL ON           R$  000000000055000000000005500000000000550000000000055000000000005500000000000521000000000059900001000000000000000018000000000000009900000000000000009999123100000010000000000000BRBMEBACNOR8193
012017011602BMEB4       010MERC BRASIL PN           R$  000000000043500000000004380000000000430000000000043600000000004370000000000431000000000043700007000000000000006500000000000002835500000000000000009999123100000010000000000000BRBMEBACNPR5196
012017011602BMIN4       010MERC INVEST PN           R$  000000000002800000000000280000000000028000000000002800000000000280000000000027000000000002900012000000000000062000000000000001736000000000000000009999123100000010000000000000BRBMINACNPR1165
012017011602BMKS3       010BIC MONARK  ON           R$  000000002880000000000290000000000028800000000002898100000000290000000000028800000000002920000002000000000000000033000000000000956400000000000000009999123100000010000000000000BRBMKSACNOR9158
012017011612BMLC11B     010FII BMBRC LCCI  ER  MB   R$  000000000850500000000085890000000008505000000000853600000000085500000000008515000000000855000014000000000000000588000000000005019232000000000000009999123100000010000000000000BRBMLCCTF004159
012017011612BNFS11      010FII BANRISULCI           R$  000000001180100000000118010000000011800000000001180000000000118000000000011800000000001239900002000000000000000190000000000002242010000000000000009999123100000010000000000000BRBNFSCTF000152
012017011602BOAC34      010BANK AMERICADRN          R$  000000000744000000000074400000000007440000000000744000000000074400000000007440000000000000000001000000000000000100000000000000744000000000000000009999123100000010000000000000BRBOACBDR004125
012017011602BOBR4       010BOMBRIL     PN           R$  000000000021400000000002140000000000210000000000021100000000002100000000000209000000000021300012000000000000029300000000000006192000000000000000009999123100000010000000000000BRBOBRACNPR3128
012017011614BOVA11      010ISHARES BOVACI           R$  000000000616400000000062020000000006151000000000617700000000061900000000006174000000000619019051000000000001382920000000008543116740000000000000009999123100000010000000000000BRBOVACTF003102
012017011696BOVA11F     020ISHARES BOVACI           R$  000000000617200000000062860000000006155000000000618400000000062860000000006286000000000640000020000000000000000082000000000000507105000000000000009999123100000010000000000000BRBOVACTF003102
012017011638BOVAA55E    012BOVA        CI        000R$  000000000550000000000055000000000005500000000000550000000000055000000000000000000000000000000001000000000000027830000000000153065000000000000550002017011600000010000000000000BRBOVACTF003102
012017011638BOVAA56E    012BOVA        CI        000R$  000000000560000000000056000000000005600000000000560000000000056000000000000000000000000000000006000000000000024320000000000136192000000000000560002017011600000010000000000000BRBOVACTF003102
012017011638BOVAA57E    012BOVA        CI        000R$  000000000570000000000057000000000005700000000000570000000000057000000000000000000000000000000010000000000000141010000000000803757000000000000570002017011600000010000000000000BRBOVACTF003102
012017011638BOVAA58E    012BOVA        CI        000R$  000000000580000000000058000000000005800000000000580000000000058000000000000000000000000000000012000000000000141540000000000820932000000000000580002017011600000010000000000000BRBOVACTF003102
012017011638BOVAA59E    012BOVA        CI        000R$  000000000590000000000059000000000005900000000000590000000000059000000000000000000000000000000009000000000000090790000000000535661000000000000590002017011600000010000000000000BRBOVACTF003102
012017011638BOVAA60E    012BOVA        CI        000R$  000000000600000000000060000000000006000000000000600000000000060000000000000000000000000000000010000000000000078100000000000468600000000000000600002017011600000010000000000000BRBOVACTF003102
012017011638BOVAA61E    012BOVA        CI        000R$  000000000610000000000061000000000006100000000000610000000000061000000000000000000000000000000006000000000000114340000000000697474000000000000610002017011600000010000000000000BRBOVACTF003102
012017011678BOVAB11     070BOVAE       CI        000R$  000000000021000000000002100000000000205000000000020600000000002050000000000000000000000000000007000000000000007610000000000001567980000000000615002017022000000010000000000000BRBOVACTF003102
012017011678BOVAB58     070BOVA        CI        000R$  000000000048900000000004890000000000489000000000048900000000004890000000000000000000000000000001000000000000000300000000000000146700000000000580002017022000000010000000000000BRBOVACTF003102
012017011678BOVAB59     070BOVA        CI        000R$  000000000039600000000003960000000000388000000000039200000000003880000000000000000000000000000004000000000000007500000000000002940300000000000590002017022000000010000000000000BRBOVACTF003102
012017011678BOVAB6      070BOVA  FM    CI        000R$  000000000024600000000002510000000000237000000000024200000000002420000000000000000000000000000163000000000000014600000000000003546210000000000610002017022000000010000000000000BRBOVACTF003102
012017011678BOVAB60     070BOVA  FM    CI        000R$  000000000030900000000003110000000000298000000000030500000000002980000000000000000000000000000004000000000000010000000000000003057500000000000600002017022000000010000000000000BRBOVACTF003102
012017011678BOVAB62     070BOVA  FM    CI        000R$  000000000017800000000001860000000000172000000000017600000000001740000000000000000000000000000009000000000000010020000000000001766660000000000620002017022000000010000000000000BRBOVACTF003102
012017011678BOVAB63     070BOVA  FM    CI        000R$  000000000013100000000001340000000000131000000000013100000000001340000000000000000000000000000002000000000000002600000000000000340900000000000630002017022000000010000000000000BRBOVACTF003102
012017011678BOVAB64     070BOVA  FM    CI        000R$  000000000009300000000000970000000000093000000000009600000000000970000000000081000000000000000002000000000000002080000000000000201440000000000640002017022000000010000000000000BRBOVACTF003102
012017011678BOVAB65     070BOVA        CI        000R$  000000000006200000000000620000000000060000000000006100000000000600000000000000000000000000000002000000000000001790000000000000110780000000000650002017022000000010000000000000BRBOVACTF003102
012017011678BOVAC62     070BOVA  FM    CI        000R$  000000000027600000000002760000000000276000000000027600000000002760000000000000000000000000000001000000000000000100000000000000027600000000000620002017032000000010000000000000BRBOVACTF003102
012017011678BOVAC64     070BOVA  FM    CI        000R$  000000000017000000000001700000000000167000000000016800000000001670000000000000000000000000000003000000000000004500000000000000758500000000000640002017032000000010000000000000BRBOVACTF003102
012017011682BOVAN58     080BOVAE       CI        000R$  000000000003500000000000350000000000035000000000003500000000000350000000000035000000000000000001000000000000006000000000000000210000000000000580002017022000000010000000000000BRBOVACTF003102
012017011682BOVAN63     080BOVAE FM    CI        000R$  000000000019500000000001950000000000195000000000019500000000001950000000000000000000000000000001000000000000002500000000000000487500000000000630002017022000000010000000000000BRBOVACTF003102
012017011682BOVAO58     080BOVAE       CI        000R$  000000000008100000000000810000000000081000000000008100000000000810000000000000000000000000000001000000000000000300000000000000024300000000000580002017032000000010000000000000BRBOVACTF003102
012017011614BOVV11      010IT NOW IBOV CI           R$  000000000637400000000063920000000006374000000000638400000000063920000000005000000000000750000035000000000000027000000000000172392400000000000000009999123100000010000000000000BRBOVVCTF009100
012017011602BPAN4       010BANCO PAN   PN      N1   R$  000000000014100000000001500000000000141000000000014700000000001480000000000146000000000014700222000000000000193100000000000028422000000000000000009999123100000010000000000000BRBPANACNPR1104
012017011696BPAN4F      020BANCO PAN   PN      N1   R$  000000000014200000000001490000000000142000000000014300000000001450000000000145000000000014800004000000000000000198000000000000028331000000000000009999123100000010000000000000BRBPANACNPR1104
012017011612BPFF11      010FII ABSOLUTOCI           R$  000000000839800000000084990000000008051000000000824100000000081510000000008150000000000831000110000000000000007868000000000064845582000000000000009999123100000010000000000000BRBPFFCTF002145
012017011602BPHA3       010BR PHARMA   ON      NM   R$  000000000058100000000006240000000000555000000000057900000000005600000000000560000000000056201185000000000000638300000000000369967700000000000000009999123100000010000000000000BRBPHAACNOR6104
012017011696BPHA3F      020BR PHARMA   ON      NM   R$  000000000063200000000006320000000000558000000000059000000000005580000000000528000000000056000016000000000000000365000000000000215362000000000000009999123100000010000000000000BRBPHAACNOR6104
012017011602BRAP3       010BRADESPAR   ON      N1   R$  000000000160900000000016340000000001565000000000160500000000016250000000001577000000000162500051000000000000031800000000000051041300000000000000009999123100000010000000000000BRBRAPACNOR5130
012017011696BRAP3F      020BRADESPAR   ON      N1   R$  000000000152200000000016310000000001522000000000157300000000016310000000001550000000000161400008000000000000000204000000000000320939000000000000009999123100000010000000000000BRBRAPACNOR5130
012017011662BRAP3T      030BRADESPAR   ON      N1060R$  000000000163500000000016360000000001635000000000163500000000016360000000000000000000000000000010000000000000017200000000000028128192000000000000009999123100000010000000000000BRBRAPACNOR5130
012017011602BRAP4       010BRADESPAR   PN      N1   R$  000000000191000000000019850000000001910000000000196300000000019600000000001960000000000196108589000000000002824800000000005545846800000000000000009999123100000010000000000000BRBRAPACNPR2130
012017011696BRAP4F      020BRADESPAR   PN      N1   R$  000000000194000000000020000000000001909000000000196700000000020000000000001955000000000200000225000000000000006762000000000013307088000000000000009999123100000010000000000000BRBRAPACNPR2130
012017011678BRAPC71     070BRAPE       PN      N1000R$  000000000005800000000000580000000000058000000000005800000000000580000000000000000000000000000003000000000000046600000000000002702800000000000215102017032000000010000000000000BRBRAPACNPR2130
012017011678BRAPE21     070BRAP        PN      N1000R$  000000000013000000000001300000000000130000000000013000000000001300000000000000000000000000000002000000000000046500000000000006045000000000000210002017051500000010000000000000BRBRAPACNPR2130
012017011678BRAPI23     070BRAP        PN      N1000R$  000000000016000000000001600000000000160000000000016000000000001600000000000000000000000000000003000000000000046600000000000007456000000000000230002017091800000010000000000000BRBRAPACNPR2130
012017011678BRAPK83     070BRAPE       PN      N1000R$  000000000020000000000002000000000000200000000000020000000000002000000000000000000000000000000002000000000000046500000000000009300000000000000232502017112100000010000000000000BRBRAPACNPR2130
012017011682BRAPQ48     080BRAPE       PN      N1000R$  000000000013000000000001300000000000130000000000013000000000001300000000000000000000000000000002000000000000046500000000000006045000000000000185002017051500000010000000000000BRBRAPACNPR2130
012017011682BRAPW48     080BRAPE       PN      N1000R$  000000000020000000000002000000000000200000000000020000000000002000000000000000000000000000000002000000000000046500000000000009300000000000000185002017112100000010000000000000BRBRAPACNPR2130
012017011614BRAX11      010ISHARES BRAXCI           R$  000000000515500000000051850000000005155000000000517500000000051710000000000046000000000000000011000000000000000920000000000004761340000000000000009999123100000010000000000000BRBRAXCTF002100
012017011696BRAX11F     020ISHARES BRAXCI           R$  000000000518500000000051850000000005185000000000518500000000051850000000005185000000000000000001000000000000000003000000000000015555000000000000009999123100000010000000000000BRBRAXCTF002100
012017011612BRCR11      010FII BC FUND CI  ER       R$  000000000960100000000096920000000009590000000000962800000000096000000000009600000000000963800755000000000000028466000000000274079796000000000000009999123100000010000000000000BRBRCRCTF000173
012017011602BRFS3       010BRF SA      ON      NM   R$  000000000457600000000046400000000004550000000000458600000000045800000000004580000000000458404574000000000001040100000000004770682500000000000000009999123100000010000000000000BRBRFSACNOR8117
012017011696BRFS3F      020BRF SA      ON      NM   R$  000000000457900000000046490000000004554000000000458700000000045980000000004562000000000459800154000000000000002843000000000013041458000000000000009999123100000010000000000000BRBRFSACNOR8117
012017011662BRFS3T      030BRF SA      ON      NM016R$  000000000463300000000046340000000004633000000000463300000000046340000000000000000000000000000002000000000000000500000000000002316632000000000000009999123100000010000000000000BRBRFSACNOR8117
012017011662BRFS3T      030BRF SA      ON      NM030R$  000000000465700000000046580000000004657000000000465700000000046580000000000000000000000000000002000000000000000100000000000000465796000000000000009999123100000010000000000000BRBRFSACNOR8117
012017011662BRFS3T      030BRF SA      ON      NM038R$  000000000462700000000046280000000004627000000000462700000000046280000000000000000000000000000002000000000000001000000000000004627997000000000000009999123100000010000000000000BRBRFSACNOR8117
012017011662BRFS3T      030BRF SA      ON      NM045R$  000000000467600000000046770000000004652000000000465900000000046530000000000000000000000000000004000000000000004200000000000019568672000000000000009999123100000010000000000000BRBRFSACNOR8117
012017011662BRFS3T      030BRF SA      ON      NM060R$  000000000468800000000046890000000004656000000000468700000000046570000000000000000000000000000004000000000000025500000000000119543970000000000000009999123100000010000000000000BRBRFSACNOR8117
012017011662BRFS3T      030BRF SA      ON      NM091R$  000000000473600000000047370000000004736000000000473600000000047370000000000000000000000000000002000000000000015000000000000071042022000000000000009999123100000010000000000000BRBRFSACNOR8117
012017011662BRFS3T      030BRF SA      ON      NM120R$  000000000476400000000047650000000004764000000000476400000000047650000000000000000000000000000002000000000000000100000000000000476449000000000000009999123100000010000000000000BRBRFSACNOR8117
012017011638BRFSA15E    012BRFS        ON      NM000R$  000000000459700000000045970000000004597000000000459700000000045970000000000000000000000000000002000000000000010100000000000046429700000000000459702017011600000010000000000000BRBRFSACNOR8117
012017011638BRFSA45E    012BRFS        ON      NM000R$  000000000454700000000045470000000004547000000000454700000000045470000000000000000000000000000004000000000000004300000000000019552100000000000454702017011600000010000000000000BRBRFSACNOR8117
012017011678BRFSB1      070BRFS        ON      NM000R$  000000000002800000000000280000000000028000000000002800000000000280000000000011000000000000000001000000000000000500000000000000014000000000000517202017022000000010000000000000BRBRFSACNOR8117
012017011678BRFSB17     070BRFS  FM    ON      NM000R$  000000000012000000000001200000000000109000000000011200000000001090000000000000000000000000000004000000000000006900000000000000775500000000000479702017022000000010000000000000BRBRFSACNOR8117
012017011678BRFSB18     070BRFS  FM    ON      NM000R$  000000000007600000000000760000000000070000000000007500000000000700000000000000000000000008000003000000000000003200000000000000242000000000000489702017022000000010000000000000BRBRFSACNOR8117
012017011678BRFSB19     070BRFS        ON      NM000R$  000000000006200000000000620000000000055000000000005600000000000550000000000000000000000011000002000000000000000400000000000000022700000000000499702017022000000010000000000000BRBRFSACNOR8117
012017011678BRFSB45     070BRFS  FM    ON      NM000R$  000000000023600000000002380000000000216000000000022500000000002160000000000216000000000000000009000000000000014900000000000003359700000000000454702017022000000010000000000000BRBRFSACNOR8117
012017011678BRFSB46     070BRFS        ON      NM000R$  000000000017700000000001900000000000175000000000018100000000001900000000000000000000000000000008000000000000011000000000000001992600000000000464702017022000000010000000000000BRBRFSACNOR8117
012017011678BRFSB47     070BRFS        ON      NM000R$  000000000011100000000001200000000000111000000000011700000000001200000000000111000000000000000003000000000000003000000000000000351000000000000474702017022000000010000000000000BRBRFSACNOR8117
012017011678BRFSB48     070BRFS        ON      NM000R$  000000000010300000000001030000000000087000000000009300000000000950000000000065000000000000000014000000000000011300000000000001055000000000000484702017022000000010000000000000BRBRFSACNOR8117
012017011678BRFSB49     070BRFS        ON      NM000R$  000000000007000000000000710000000000066000000000006800000000000710000000000000000000000000000008000000000000009900000000000000682300000000000494702017022000000010000000000000BRBRFSACNOR8117
012017011678BRFSB5      070BRFS  FM    ON      NM000R$  000000000020700000000002160000000000185000000000020500000000001850000000000000000000000000000016000000000000021600000000000004445600000000000459702017022000000010000000000000BRBRFSACNOR8117
012017011678BRFSB51     070BRFS        ON      NM000R$  000000000004500000000000450000000000040000000000004100000000000400000000000015000000000004100007000000000000004100000000000000169100000000000507202017022000000010000000000000BRBRFSACNOR8116
012017011678BRFSB6      070BRFS  FM    ON      NM000R$  000000000015300000000001570000000000153000000000015500000000001550000000000000000000000000000003000000000000003500000000000000544500000000000469702017022000000010000000000000BRBRFSACNOR8117
012017011678BRFSC15     070BRFS  FM    ON      NM000R$  000000000030800000000003130000000000308000000000031200000000003130000000000000000000000000000002000000000000002600000000000000813300000000000455802017032000000010000000000000BRBRFSACNOR8117
012017011678BRFSC16     070BRFS  FM    ON      NM000R$  000000000025800000000002580000000000232000000000025700000000002320000000000000000000000000000002000000000000002600000000000000668200000000000465802017032000000010000000000000BRBRFSACNOR8117
012017011678BRFSC19     070BRFS  FM    ON      NM000R$  000000000013700000000001370000000000137000000000013700000000001370000000000000000000000000000001000000000000000400000000000000054800000000000495802017032000000010000000000000BRBRFSACNOR8117
012017011678BRFSC4      070BRFSE       ON      NM000R$  000000000007400000000000740000000000073000000000007300000000000730000000000000000000000000000002000000000000015000000000000001107900000000000518302017032000000010000000000000BRBRFSACNOR8115
012017011678BRFSC7      070BRFS  FM    ON      NM000R$  000000000018700000000001870000000000187000000000018700000000001870000000000000000000000000000001000000000000000100000000000000018700000000000475802017032000000010000000000000BRBRFSACNOR8117
012017011678BRFSD48     070BRFS        ON      NM000R$  000000000023000000000002300000000000230000000000023000000000002300000000000000000000000000000001000000000000000100000000000000023000000000000483302017041700000010000000000000BRBRFSACNOR8117
